{
  "_format": "hh-sol-artifact-1",
  "contractName": "WavePortal",
  "sourceName": "contracts/WavePortal.sol",
  "abi": [
    {
      "inputs": [],
      "stateMutability": "payable",
      "type": "constructor"
    },
    {
      "anonymous": false,
      "inputs": [
        {
          "indexed": true,
          "internalType": "address",
          "name": "from",
          "type": "address"
        },
        {
          "indexed": false,
          "internalType": "uint256",
          "name": "timestamp",
          "type": "uint256"
        },
        {
          "indexed": false,
          "internalType": "string",
          "name": "message",
          "type": "string"
        }
      ],
      "name": "NewWave",
      "type": "event"
    },
    {
      "inputs": [],
      "name": "getAllWaves",
      "outputs": [
        {
          "components": [
            {
              "internalType": "address",
              "name": "waver",
              "type": "address"
            },
            {
              "internalType": "string",
              "name": "message",
              "type": "string"
            },
            {
              "internalType": "uint256",
              "name": "timestamp",
              "type": "uint256"
            }
          ],
          "internalType": "struct WavePortal.Wave[]",
          "name": "",
          "type": "tuple[]"
        }
      ],
      "stateMutability": "view",
      "type": "function"
    },
    {
      "inputs": [],
      "name": "getTotalWaves",
      "outputs": [
        {
          "internalType": "uint256",
          "name": "",
          "type": "uint256"
        }
      ],
      "stateMutability": "view",
      "type": "function"
    },
    {
      "inputs": [
        {
          "internalType": "address",
          "name": "",
          "type": "address"
        }
      ],
      "name": "lastWaveAt",
      "outputs": [
        {
          "internalType": "uint256",
          "name": "",
          "type": "uint256"
        }
      ],
      "stateMutability": "view",
      "type": "function"
    },
    {
      "inputs": [
        {
          "internalType": "string",
          "name": "_message",
          "type": "string"
        }
      ],
      "name": "wave",
      "outputs": [],
      "stateMutability": "nonpayable",
      "type": "function"
    }
  ],
  "bytecode": "0x60806040526200004f6040518060400160405280601981526020017f57652068617665206265656e20636f6e737472756374656421000000000000008152506200007760201b620006831760201c565b606444426200005f91906200017c565b6200006b9190620001e6565b600181905550620002dc565b62000117816040516024016200008e9190620002b8565b6040516020818303038152906040527f41304fac000000000000000000000000000000000000000000000000000000007bffffffffffffffffffffffffffffffffffffffffffffffffffffffff19166020820180517bffffffffffffffffffffffffffffffffffffffffffffffffffffffff83818316178352505050506200011a60201b60201c565b50565b60008151905060006a636f6e736f6c652e6c6f679050602083016000808483855afa5050505050565b6000819050919050565b7f4e487b7100000000000000000000000000000000000000000000000000000000600052601160045260246000fd5b6000620001898262000143565b9150620001968362000143565b9250828201905080821115620001b157620001b06200014d565b5b92915050565b7f4e487b7100000000000000000000000000000000000000000000000000000000600052601260045260246000fd5b6000620001f38262000143565b9150620002008362000143565b925082620002135762000212620001b7565b5b828206905092915050565b600081519050919050565b600082825260208201905092915050565b60005b838110156200025a5780820151818401526020810190506200023d565b60008484015250505050565b6000601f19601f8301169050919050565b600062000284826200021e565b62000290818562000229565b9350620002a28185602086016200023a565b620002ad8162000266565b840191505092915050565b60006020820190508181036000830152620002d4818462000277565b905092915050565b61136880620002ec6000396000f3fe608060405234801561001057600080fd5b506004361061004c5760003560e01c8063449d46c0146100515780639a2cdc081461006d578063bd43a9081461008b578063cb199503146100a9575b600080fd5b61006b600480360381019061006691906109d7565b6100d9565b005b610075610511565b6040516100829190610a39565b60405180910390f35b61009361051a565b6040516100a09190610c35565b60405180910390f35b6100c360048036038101906100be9190610c83565b61066b565b6040516100d09190610a39565b60405180910390f35b42601e600360003373ffffffffffffffffffffffffffffffffffffffff1673ffffffffffffffffffffffffffffffffffffffff168152602001908152602001600020546101269190610cdf565b10610166576040517f08c379a000000000000000000000000000000000000000000000000000000000815260040161015d90610d70565b60405180910390fd5b42600360003373ffffffffffffffffffffffffffffffffffffffff1673ffffffffffffffffffffffffffffffffffffffff1681526020019081526020016000208190555060016000808282546101bc9190610cdf565b925050819055506102026040518060400160405280600d81526020017f25732068617320776176656421000000000000000000000000000000000000008152503361071c565b600260405180606001604052803373ffffffffffffffffffffffffffffffffffffffff16815260200183815260200142815250908060018154018082558091505060019003906000526020600020906003020160009091909190915060008201518160000160006101000a81548173ffffffffffffffffffffffffffffffffffffffff021916908373ffffffffffffffffffffffffffffffffffffffff16021790555060208201518160010190816102ba9190610f9c565b50604082015181600201555050606460015444426102d89190610cdf565b6102e29190610cdf565b6102ec919061109d565b6001819055506103336040518060400160405280601681526020017f52616e646f6d20232067656e6572617465643a202564000000000000000000008152506001546107b8565b60326001541161047e5761037c6040518060400160405280600781526020017f257320776f6e21000000000000000000000000000000000000000000000000008152503361071c565b6000660110d9316ec0009050478111156103cb576040517f08c379a00000000000000000000000000000000000000000000000000000000081526004016103c290611140565b60405180910390fd5b60003373ffffffffffffffffffffffffffffffffffffffff16826040516103f190611191565b60006040518083038185875af1925050503d806000811461042e576040519150601f19603f3d011682016040523d82523d6000602084013e610433565b606091505b5050905080610477576040517f08c379a000000000000000000000000000000000000000000000000000000000815260040161046e90611218565b60405180910390fd5b50506104be565b6104bd6040518060400160405280600f81526020017f257320646964206e6f742077696e2e00000000000000000000000000000000008152503361071c565b5b3373ffffffffffffffffffffffffffffffffffffffff167f5f7e16dc676677766a70e9c5628aa6c54ddb8b6e5188e2ae1e1f17f1ffbea7164283604051610506929190611271565b60405180910390a250565b60008054905090565b60606002805480602002602001604051908101604052809291908181526020016000905b8282101561066257838290600052602060002090600302016040518060600160405290816000820160009054906101000a900473ffffffffffffffffffffffffffffffffffffffff1673ffffffffffffffffffffffffffffffffffffffff1673ffffffffffffffffffffffffffffffffffffffff1681526020016001820180546105c790610dbf565b80601f01602080910402602001604051908101604052809291908181526020018280546105f390610dbf565b80156106405780601f1061061557610100808354040283529160200191610640565b820191906000526020600020905b81548152906001019060200180831161062357829003601f168201915b505050505081526020016002820154815250508152602001906001019061053e565b50505050905090565b60036020528060005260406000206000915090505481565b6107198160405160240161069791906112a1565b6040516020818303038152906040527f41304fac000000000000000000000000000000000000000000000000000000007bffffffffffffffffffffffffffffffffffffffffffffffffffffffff19166020820180517bffffffffffffffffffffffffffffffffffffffffffffffffffffffff8381831617835250505050610854565b50565b6107b482826040516024016107329291906112d2565b6040516020818303038152906040527f319af333000000000000000000000000000000000000000000000000000000007bffffffffffffffffffffffffffffffffffffffffffffffffffffffff19166020820180517bffffffffffffffffffffffffffffffffffffffffffffffffffffffff8381831617835250505050610854565b5050565b61085082826040516024016107ce929190611302565b6040516020818303038152906040527fb60e72cc000000000000000000000000000000000000000000000000000000007bffffffffffffffffffffffffffffffffffffffffffffffffffffffff19166020820180517bffffffffffffffffffffffffffffffffffffffffffffffffffffffff8381831617835250505050610854565b5050565b60008151905060006a636f6e736f6c652e6c6f679050602083016000808483855afa5050505050565b6000604051905090565b600080fd5b600080fd5b600080fd5b600080fd5b6000601f19601f8301169050919050565b7f4e487b7100000000000000000000000000000000000000000000000000000000600052604160045260246000fd5b6108e48261089b565b810181811067ffffffffffffffff82111715610903576109026108ac565b5b80604052505050565b600061091661087d565b905061092282826108db565b919050565b600067ffffffffffffffff821115610942576109416108ac565b5b61094b8261089b565b9050602081019050919050565b82818337600083830152505050565b600061097a61097584610927565b61090c565b90508281526020810184848401111561099657610995610896565b5b6109a1848285610958565b509392505050565b600082601f8301126109be576109bd610891565b5b81356109ce848260208601610967565b91505092915050565b6000602082840312156109ed576109ec610887565b5b600082013567ffffffffffffffff811115610a0b57610a0a61088c565b5b610a17848285016109a9565b91505092915050565b6000819050919050565b610a3381610a20565b82525050565b6000602082019050610a4e6000830184610a2a565b92915050565b600081519050919050565b600082825260208201905092915050565b6000819050602082019050919050565b600073ffffffffffffffffffffffffffffffffffffffff82169050919050565b6000610aab82610a80565b9050919050565b610abb81610aa0565b82525050565b600081519050919050565b600082825260208201905092915050565b60005b83811015610afb578082015181840152602081019050610ae0565b60008484015250505050565b6000610b1282610ac1565b610b1c8185610acc565b9350610b2c818560208601610add565b610b358161089b565b840191505092915050565b610b4981610a20565b82525050565b6000606083016000830151610b676000860182610ab2565b5060208301518482036020860152610b7f8282610b07565b9150506040830151610b946040860182610b40565b508091505092915050565b6000610bab8383610b4f565b905092915050565b6000602082019050919050565b6000610bcb82610a54565b610bd58185610a5f565b935083602082028501610be785610a70565b8060005b85811015610c235784840389528151610c048582610b9f565b9450610c0f83610bb3565b925060208a01995050600181019050610beb565b50829750879550505050505092915050565b60006020820190508181036000830152610c4f8184610bc0565b905092915050565b610c6081610aa0565b8114610c6b57600080fd5b50565b600081359050610c7d81610c57565b92915050565b600060208284031215610c9957610c98610887565b5b6000610ca784828501610c6e565b91505092915050565b7f4e487b7100000000000000000000000000000000000000000000000000000000600052601160045260246000fd5b6000610cea82610a20565b9150610cf583610a20565b9250828201905080821115610d0d57610d0c610cb0565b5b92915050565b600082825260208201905092915050565b7f5761697420333073656300000000000000000000000000000000000000000000600082015250565b6000610d5a600a83610d13565b9150610d6582610d24565b602082019050919050565b60006020820190508181036000830152610d8981610d4d565b9050919050565b7f4e487b7100000000000000000000000000000000000000000000000000000000600052602260045260246000fd5b60006002820490506001821680610dd757607f821691505b602082108103610dea57610de9610d90565b5b50919050565b60008190508160005260206000209050919050565b60006020601f8301049050919050565b600082821b905092915050565b600060088302610e527fffffffffffffffffffffffffffffffffffffffffffffffffffffffffffffffff82610e15565b610e5c8683610e15565b95508019841693508086168417925050509392505050565b6000819050919050565b6000610e99610e94610e8f84610a20565b610e74565b610a20565b9050919050565b6000819050919050565b610eb383610e7e565b610ec7610ebf82610ea0565b848454610e22565b825550505050565b600090565b610edc610ecf565b610ee7818484610eaa565b505050565b5b81811015610f0b57610f00600082610ed4565b600181019050610eed565b5050565b601f821115610f5057610f2181610df0565b610f2a84610e05565b81016020851015610f39578190505b610f4d610f4585610e05565b830182610eec565b50505b505050565b600082821c905092915050565b6000610f7360001984600802610f55565b1980831691505092915050565b6000610f8c8383610f62565b9150826002028217905092915050565b610fa582610ac1565b67ffffffffffffffff811115610fbe57610fbd6108ac565b5b610fc88254610dbf565b610fd3828285610f0f565b600060209050601f8311600181146110065760008415610ff4578287015190505b610ffe8582610f80565b865550611066565b601f19841661101486610df0565b60005b8281101561103c57848901518255600182019150602085019450602081019050611017565b868310156110595784890151611055601f891682610f62565b8355505b6001600288020188555050505b505050505050565b7f4e487b7100000000000000000000000000000000000000000000000000000000600052601260045260246000fd5b60006110a882610a20565b91506110b383610a20565b9250826110c3576110c261106e565b5b828206905092915050565b7f547279696e6720746f207769746864726177206d6f7265206d6f6e657920746860008201527f616e2074686520636f6e7472616374206861732e000000000000000000000000602082015250565b600061112a603483610d13565b9150611135826110ce565b604082019050919050565b600060208201905081810360008301526111598161111d565b9050919050565b600081905092915050565b50565b600061117b600083611160565b91506111868261116b565b600082019050919050565b600061119c8261116e565b9150819050919050565b7f4661696c656420746f207769746864726177206d6f6e65792066726f6d20636f60008201527f6e74726163742e00000000000000000000000000000000000000000000000000602082015250565b6000611202602783610d13565b915061120d826111a6565b604082019050919050565b60006020820190508181036000830152611231816111f5565b9050919050565b600061124382610ac1565b61124d8185610d13565b935061125d818560208601610add565b6112668161089b565b840191505092915050565b60006040820190506112866000830185610a2a565b81810360208301526112988184611238565b90509392505050565b600060208201905081810360008301526112bb8184611238565b905092915050565b6112cc81610aa0565b82525050565b600060408201905081810360008301526112ec8185611238565b90506112fb60208301846112c3565b9392505050565b6000604082019050818103600083015261131c8185611238565b905061132b6020830184610a2a565b939250505056fea2646970667358221220cf96cbb12c12b7ce8ff83f9c63986e6f77cfe8e7ecbd1e8cf8a856dbf1da234364736f6c63430008110033",
  "linkReferences": {},
  "deployedLinkReferences": {}
}